:20C000002183C14C00006B3C5C42C6C5C43C5C42C7C5C13C5C42C8C5BE3C5C42C9C5BB3C30
:20C020005C42CAC5B83C5C42CBC5B53C5C42CCC5B23C5C42CDC5AF3C5C42CEC5AC3C5C42D1
:20C04000CFC5A93C5C42ACC5A63C5C42ADC5A33C5C42AEC5A03C5C42AFC59D3C5C42B0C59C
:20C060009A3C5C42B1C5973C5C42B2C5943C5C42B3C5913C5C42B4C58E3C5C42B5C58B3C7B
:20C080005C42B6C5883C5C42B7C5853C5C42B8C5823C5C42B9C57F3C5C42BAC57C3C5C42C5
:20C0A000BBC5793C5C42BCC5763C5C42BDC5733C5C42BEC5703C5C42BFC56D3C5C42C0C5F0
:20C0C0006A3C5C42C1C5673C5C42C2C5643C5C42C3C5613C5C42C4C55E3C4C435C3C6F41D3
:20C0E0003F90650027343F906400B5273F904B0012343F904A00C1273F802D003F900E0078
:20C1000039283F8014009E272F83A2272F83A6271F83A727E23F3F804C00B2272F82B92726
:20C120003F800300BF273F800C00C8273F8003008C27D33F3F90720010343F907100AC277E
:20C140003F80670091271F8392271F8393273F80050099271F839A27C03F3F8072009F276D
:20C160002F83A3271F83A4272F82A5273F802E00B127B33F0F5F104F7AC1C2C0C8C0DAC0F6
:20C1800008C00EC014C01AC020C026C02CC032C038C03EC0CEC0215330412183E29206022E
:20C1A0000228C24306025D4206021C43B012B6C4C2BC07021424F2F0F0002900C243210026
:20C1C0003F40F0005FF22900C14F00005D4206021C43B012B6C46CD1C24C2900313CF290C1
:20C1E00003000602172CF2F0F00029005F420602D24F000221003F40F0005FF22900C14F10
:20C2000000005D4206021C43B012B6C46CD1C24C2900163CF2F0F00029005F420602D24F51
:20C22000000221003F40F0005FF22900C14F00005D4206021C43B012B6C46CD1C24C29002C
:20C24000D2530602215330412183C14D0100C14C0000E19201003B2CF1900A0000000F2C6B
:20C26000B0120CC57CE35E4101003F4080005FFE00024CDF5F410100CF4C0002213CF19007
:20C28000100000000F2CB01228C57CE35E4101003F4080005FFE00024CDF5F410100CF4C60
:20C2A00000020E3CB01200C07CE35E4101003F4080005FFE00024CDF5F410100CF4C00026A
:20C2C0005D4101001C43B012B6C4C2CC0702215330410F120E120D120C120B123F4003008B
:20C2E0001F520402829FB4010328D2D32100023CD2C321001C42B4017CF00F006D43B0120C
:20C3000048C2B2901000B4010B281C42B401B0123EC43F400F004CFF5D43B01248C2033C7E
:20C320005C43B01272C5B2900001B40109281C42B4018C107CF00F004D43B01248C2033C77
:20C340004C43B01272C53B413C413D413E413F410013B240805A2001B24064A4B201B24040
:20C360007838B00132D2B2401E007201B2D010006201B2401002600132D01000B2F0EFFFD9
:20C38000620132C20343A2D3B001B24080006401B24020026001A2B2B001FD279242B401DC
:20C3A0000402C2432100D243220030410A1209123F40DAC53F90DCC516243F40DCC53F90BB
:20C3C000E0C511243A40E0C53A80DCC50A110A113940DCC53C497F4C0F5F1F4FDAC53D4968
:20C3E0008F121A83F7233F4000003F90000008243A400000023C3F4A8F123A900000FB23A1
:20C4000030408CC53DF00F003DE00F000D5D0D5D005D12C30C1012C30C1012C30C1012C31A
:20C420000C1012C30C1012C30C1012C30C1012C30C1012C30C1012C30C1012C30C1012C374
:20C440000C1012C30C1012C30C1012C30C1030410F120E120D120C120B12063CB0129AC182
:20C46000B2507D009401093C1F421E012F83F6272F8303243F80060000243B413C413D41DB
:20C480003E413F410013B01252C34C434D43B01248C24C435D43B01248C24C436D43B012CC
:20C4A00048C27C437D400300B01248C2B012E2C432D0180030413DF00F003DE00F000D5D62
:20C4C000005D0C5C0C5C0C5C0C5C0C5C0C5C0C5C0C5C0C5C0C5C0C5C0C5C0C5C0C5C0C5CE7
:20C4E0003041B240805A2001F2432200F2403F002A00B24010008401B2407D009401F2D09F
:20C5000006005800B240A002800130412183C14C0000F1900A000000042C6F415C4FC6C5E5
:20C52000013C4C43215330412183C14C0000F19010000000042C6F415C4FC6C5013C4C4326
:20C540002153304131400004B012A4C50C930224B012ACC30C43B01286C4B012A8C51F4C6B
:20C5600001000F9305241D53CD43FFFF1F83FB2330412183C14C00006F41FF430002215327
:20C5800030413441354136413741384139413A41304182436001B1C010000000001332D0B5
:0CC5A0001000FD3F1C4330410343FF3FEF
:20C5AC00757C395E79716F74061E38545C7367506D781C6E0840800304003F065B4F666DE4
:0AC5CC007D077F67757C395E797189
:0AC5D600000008005EC5D6C5000293
:02FFE0009EC5BC
:02FFE4009EC5B8
:02FFE6009EC5B6
:02FFEA00D2C281
:02FFEC009EC5B0
:02FFEE009EC5AE
:02FFF0009EC5AC
:02FFF20092C5B6
:02FFF4009EC5A8
:02FFF6009EC5A6
:02FFF80050C4F3
:02FFFA009EC5A2
:02FFFC009EC5A0
:02FFFE0044C5F8
:00000001FF
